{
    "contractName": "Transactions",
    "abi": [
        {
            "anonymous": false,
            "inputs": [
                {
                    "indexed": false,
                    "internalType": "address",
                    "name": "from",
                    "type": "address"
                },
                {
                    "indexed": false,
                    "internalType": "address",
                    "name": "reciever",
                    "type": "address"
                },
                {
                    "indexed": false,
                    "internalType": "uint256",
                    "name": "amount",
                    "type": "uint256"
                },
                {
                    "indexed": false,
                    "internalType": "string",
                    "name": "message",
                    "type": "string"
                },
                {
                    "indexed": false,
                    "internalType": "uint256",
                    "name": "timestamp",
                    "type": "uint256"
                },
                {
                    "indexed": false,
                    "internalType": "string",
                    "name": "keyword",
                    "type": "string"
                }
            ],
            "name": "Transfer",
            "type": "event"
        },
        {
            "inputs": [
                {
                    "internalType": "address payable",
                    "name": "reciever",
                    "type": "address"
                },
                {
                    "internalType": "uint256",
                    "name": "amount",
                    "type": "uint256"
                },
                {
                    "internalType": "string",
                    "name": "message",
                    "type": "string"
                },
                {
                    "internalType": "string",
                    "name": "keyword",
                    "type": "string"
                }
            ],
            "name": "addToBlockchain",
            "outputs": [],
            "stateMutability": "nonpayable",
            "type": "function"
        },
        {
            "inputs": [],
            "name": "getAllTransactions",
            "outputs": [
                {
                    "components": [
                        {
                            "internalType": "address",
                            "name": "sender",
                            "type": "address"
                        },
                        {
                            "internalType": "address",
                            "name": "reciever",
                            "type": "address"
                        },
                        {
                            "internalType": "uint256",
                            "name": "amount",
                            "type": "uint256"
                        },
                        {
                            "internalType": "string",
                            "name": "message",
                            "type": "string"
                        },
                        {
                            "internalType": "uint256",
                            "name": "timestamp",
                            "type": "uint256"
                        },
                        {
                            "internalType": "string",
                            "name": "keyword",
                            "type": "string"
                        }
                    ],
                    "internalType": "struct Transactions.TransferStruct[]",
                    "name": "",
                    "type": "tuple[]"
                }
            ],
            "stateMutability": "view",
            "type": "function"
        },
        {
            "inputs": [],
            "name": "getTransactionsCount",
            "outputs": [
                {
                    "internalType": "uint256",
                    "name": "",
                    "type": "uint256"
                }
            ],
            "stateMutability": "view",
            "type": "function"
        }
    ],
    "bytecode": "608060405234801561001057600080fd5b50610649806100206000396000f3fe608060405234801561001057600080fd5b50600436106100415760003560e01c806327506f5314610046578063578cb8f91461005e578063cc2d7ead1461006d575b600080fd5b6060604051610055919061025b565b60405180910390f35b60405160008152602001610055565b61008061007b3660046103bf565b610082565b005b6001600080828254610094919061044b565b90915550506040805160c0810182523381526001600160a01b03868116602083019081529282018681526060830186815242608085015260a08401869052600180548082018255600091909152845160069091027fb10e2d527612073b26eecdfd717e6a320cf44b4afac2b0732d9fcbe2b7fa0cf6810180549286166001600160a01b031993841617815596517fb10e2d527612073b26eecdfd717e6a320cf44b4afac2b0732d9fcbe2b7fa0cf7820180549190961692169190911790935590517fb10e2d527612073b26eecdfd717e6a320cf44b4afac2b0732d9fcbe2b7fa0cf8830155519192917fb10e2d527612073b26eecdfd717e6a320cf44b4afac2b0732d9fcbe2b7fa0cf9909101906101ac90826104fb565b506080820151600482015560a082015160058201906101cb90826104fb565b5050507f416cfa4330a4565f45c2fd2dd4826a83a37443aba2ce6f79477c7355afac35fa338585854286604051610207969594939291906105bb565b60405180910390a150505050565b6000815180845260005b8181101561023b5760208185018101518683018201520161021f565b506000602082860101526020601f19601f83011685010191505092915050565b60006020808301818452808551808352604092508286019150828160051b87010184880160005b8381101561030e57888303603f19018552815180516001600160a01b039081168552888201511688850152868101518785015260608082015160c082870181905291906102d183880182610215565b92505050608080830151818701525060a080830151925085820381870152506102fa8183610215565b968901969450505090860190600101610282565b509098975050505050505050565b634e487b7160e01b600052604160045260246000fd5b600082601f83011261034357600080fd5b813567ffffffffffffffff8082111561035e5761035e61031c565b604051601f8301601f19908116603f011681019082821181831017156103865761038661031c565b8160405283815286602085880101111561039f57600080fd5b836020870160208301376000602085830101528094505050505092915050565b600080600080608085870312156103d557600080fd5b84356001600160a01b03811681146103ec57600080fd5b935060208501359250604085013567ffffffffffffffff8082111561041057600080fd5b61041c88838901610332565b9350606087013591508082111561043257600080fd5b5061043f87828801610332565b91505092959194509250565b8082018082111561046c57634e487b7160e01b600052601160045260246000fd5b92915050565b600181811c9082168061048657607f821691505b6020821081036104a657634e487b7160e01b600052602260045260246000fd5b50919050565b601f8211156104f657600081815260208120601f850160051c810160208610156104d35750805b601f850160051c820191505b818110156104f2578281556001016104df565b5050505b505050565b815167ffffffffffffffff8111156105155761051561031c565b610529816105238454610472565b846104ac565b602080601f83116001811461055e57600084156105465750858301515b600019600386901b1c1916600185901b1785556104f2565b600085815260208120601f198616915b8281101561058d5788860151825594840194600190910190840161056e565b50858210156105ab5787850151600019600388901b60f8161c191681555b5050505050600190811b01905550565b6001600160a01b038781168252861660208201526040810185905260c0606082018190526000906105ee90830186610215565b84608084015282810360a08401526106068185610215565b999850505050505050505056fea26469706673582212204138b593c809c415e59f112bbf2f66884be2a4b90e9a7135022506f162cdce8d64736f6c63430008110033",
    "sourcePath": "/home/howka/scripts/curly-octo-system/smart_contract/contracts/Transactions.sol",
    "compiler": {
        "name": "solc",
        "version": "0.8.17+commit.8df45f5f"
    },
    "functionHashes": {
        "addToBlockchain(address,uint256,string,string)": "cc2d7ead",
        "getAllTransactions()": "27506f53",
        "getTransactionsCount()": "578cb8f9"
    },
    "gasEstimates": {
        "creation": {
            "codeDepositCost": "321800",
            "executionCost": "362",
            "totalCost": "322162"
        },
        "external": {
            "addToBlockchain(address,uint256,string,string)": "infinite",
            "getAllTransactions()": "infinite",
            "getTransactionsCount()": "177"
        }
    }
}